:100000000C945E000C9486000C9486000C94860080
:100010000C9486000C9486000C9486000C94860048
:100020000C9486000C9486000C9486000C94860038
:100030000C9486000C9486000C9486000C94860028
:100040000C945B070C9486000C946E050C94B1051F
:100050000C9486000C9486000C9486000C94860008
:100060000C9486000C94860000000007000201003A
:100070000003040600000000000000000102040864
:100080001020408001020408102001020408102002
:10009000040404040404040402020202020203032E
:1000A0000303030300000000250028002B000000CC
:1000B0000000240027002A00D3016D0611241FBE72
:1000C000CFEFD8E0DEBFCDBF11E0A0E0B1E0E2E3CA
:1000D000F2E102C005900D92AC33B107D9F712E0FE
:1000E000ACE3B1E001C01D92A034B107E1F710E02C
:1000F000CCEBD0E004C02297FE010E949F08C83BD1
:10010000D107C9F70E94C9040C9417090C94000088
:10011000EF92FF920F931F93CF93DF938C01EC012B
:100120007C0184E3E80EF11C64E370E080E090E081
:100130000E94A5042881F801E60FF71F80818993AA
:10014000208365E070E080E090E00E94C807CE1553
:10015000DF0551F7DF91CF911F910F91FF90EF9045
:100160000895FC019F01281B390B41914111FACFE1
:10017000C90108950F931F93CF93DF938C01842FB0
:10018000462F682F88E791E00E949602E801C80197
:100190000E94B1009E01201B310B28173907CCF4B7
:1001A0008881843519F46EE071E00DC062E171E080
:1001B00088E791E00E94E903688188E791E00E9466
:1001C000EB0365E171E088E791E00E94E903219685
:1001D000DECFDF91CF911F910F910895DC01A60F23
:1001E000B71FFC01681B790BCB018E0F9F1FC497B3
:1001F00024F48C9181931D92F7CF0895A7E1B1E08B
:1002000020E030E06D91FC01E20FF31F40E050E090
:1002100061934F5F5F4F44305105D1F72C5F3F4FE3
:100220002433310579F70C9488000F931F93CF93F3
:10023000DF938C01EB018881811103C0CB010E9407
:10024000FE008881F801808389818183128262E0C7
:1002500070E0CE01DF91CF911F910F910C94EE00D1
:100260008EE00E9434089C012F5933402B30310519
:10027000C8F09C01235833402B303105B0F09C016D
:100280002B5233402B30310598F09C0124553340DC
:100290002B30310580F08F5592400B9778F080E03D
:1002A00090E0089581E090E0089582E090E0089564
:1002B00083E090E0089584E090E0089585E090E088
:1002C000089520E042E060E188E791E00E94CB02DF
:1002D00040E855E260E070E08DE891E00E94EC05B6
:1002E00061E08AE00E94EC0661E08AE00E94250756
:1002F00080E10E9434080C949D04CF93DF93809199
:100300000401882361F082E491E00E94FE0062E42F
:1003100071E08EE391E00E94150110920401C091FA
:100320007601D09177018EE00E943408C817D90772
:1003300051F18EE00E94340890937701809376010A
:100340000E9430010297F9F462E471E08EE391E0DB
:100350000E94150180913C0190913D01019690937E
:100360003D0180933C0140E060E088E791E00E941D
:10037000960260913C0170913D014AE050E088E7AF
:1003800091E00E94950440E050E061E070E08EE36F
:1003900091E00E94BA0064E670E080E090E0DF91B6
:1003A000CF910C94C807CF92EF920F9387E0C82E9D
:1003B00096E0E92E05E024E049E068E088E791E076
:1003C0000E947F030F91EF90CF900895CF93DF931A
:1003D000EC0160E08E810E94250781E090E00E94A0
:1003E000EE0761E08E810E94250781E090E00E9487
:1003F000EE0760E08E810E94250784E690E0DF91A1
:10040000CF910C94EE07CF92DF92EF92FF920F9371
:100410001F93CF93DF937C01C0E0D0E0C62ED12C98
:1004200087010C0F1D1F61E0F80187810E94EC0617
:10043000B6010C2E02C0759567950A94E2F76170BB
:10044000F80187810E9425072196C430D10541F724
:10045000C701DF91CF911F910F91FF90EF90DF9037
:10046000CF900C94E601CF92DF92EF92FF920F9320
:100470001F93CF93DF937C01C0E0D0E0C62ED12C38
:1004800087010C0F1D1F61E0F80187810E94EC06B7
:10049000B6010C2E02C0759567950A94E2F761705B
:1004A000F80187810E9425072196C830D10541F7C0
:1004B000C701DF91CF911F910F91FF90EF90DF90D7
:1004C000CF900C94E6011F93CF93DF93EC01162F8E
:1004D000642F8C810E9425078D818F3F19F060E089
:1004E0000E9425078F85612F84FF06C0CE01DF9112
:1004F000CF911F910C94330270E084E0759567955D
:100500008A95E1F7CE010E940302612FCE01DF91AF
:10051000CF911F910C94030240E00C94630261E0C0
:100520000E948C0280ED97E00C94EE07CF93DF934E
:10053000CDB7DEB728970FB6F894DEBF0FBECDBF9C
:1005400028E0E6E0F1E0DE01119601900D922A9597
:10055000E1F7FC012389421710F04FEF420FFE0133
:100560003196E40FF11DE40FF11D2081260F206864
:10057000622F28960FB6F894DEBF0FBECDBFDF9175
:10058000CF910C948C02FC016089262F2460208B73
:100590006C600C948C02CF93DF93EC01423018F026
:1005A0008F8588608F874B8B1C8A222329F04130EE
:1005B00019F48F8584608F8780E593EC0E94EE07A5
:1005C00060E08C810E94250760E08E810E942507F3
:1005D0008D818F3F19F060E00E9425076F8564FDD3
:1005E0001DC063E0CE010E94030284E991E10E94F4
:1005F000EE0763E0CE010E94030284E991E10E94CC
:10060000EE0763E0CE010E94030286E990E00E94BB
:10061000EE0762E0CE010E94030216C06062CE01C6
:100620000E948C0284E991E10E94EE076F8560626E
:10063000CE010E948C0286E990E00E94EE076F8551
:100640006062CE010E948C026F856062CE010E94C2
:100650008C0284E0888BCE010E94C302CE010E94EE
:100660008F0282E0898B66E0CE01DF91CF910C94FE
:100670008C026F927F928F92AF92CF92EF920F93F4
:100680001F93CF93DF93CDB7DEB73C01162F842F96
:100690005D854E853F859889F30184832583068394
:1006A000E782C086A18682865387448735879687EE
:1006B00061E00E94EC06F30185818F3F19F061E053
:1006C0000E94EC0661E0F30186810E94EC06112392
:1006D00019F0F301178603C080E1F301878720E05A
:1006E00041E060E1C301DF91CF911F910F91EF9045
:1006F000CF90AF908F907F906F900C94CB028F92A1
:10070000AF92CF92EF920F93DC0113961C921E9240
:100710001297E8E2F1E0ED93FC931F921F921F9273
:100720001F928C2CAE2CC02EE22E042F2FEF462FC2
:1007300061E00E9439030F900F900F900F900F917E
:10074000EF90CF90AF908F90089541E00E946302A8
:1007500081E090E00895CF92DF92EF92FF920F93A5
:100760001F93CF93DF936C017A01EB01E60EF71E26
:1007700000E010E0CE15DF0561F06991D601ED9142
:10078000FC910190F081E02DC6010995080F191F19
:10079000F1CFC801DF91CF911F910F91FF90EF90A2
:1007A000DF90CF9008956115710581F0DB010D9008
:1007B0000020E9F7AD0141505109461B570BDC0100
:1007C000ED91FC910280F381E02D099480E090E0AE
:1007D00008950C94D303DC01ED91FC910190F0811C
:1007E000E02D09948F929F92AF92BF92CF92DF92A9
:1007F000EF92FF920F931F93CF93DF93CDB7DEB7A6
:10080000A1970FB6F894DEBF0FBECDBF7C01C42EFA
:10081000E52FCB01D22E19A221E02D1510F02AE0F0
:10082000D22E8E010F5D1F4F8D2C912CA12CB12C3F
:100830006C2D7E2FA50194010E9451088C2DD29E13
:1008400080191124015011098A3014F4805D01C00F
:10085000895CF8018083211531054105510521F09E
:10086000C22EE32FCA01E4CFB801C7010E94D3030F
:10087000A1960FB6F894DEBF0FBECDBFDF91CF912A
:100880001F910F91FF90EF90DF90CF90BF90AF90AE
:100890009F908F900895CF92DF92EF92FF920F93E7
:1008A0001F93CF93DF93EC016A017B012115310582
:1008B00079F4E881F9810190F081E02D642FDF91D6
:1008C000CF911F910F91FF90EF90DF90CF900994FF
:1008D0002A303105E9F477FF1AC06DE20E94EB037C
:1008E0008C0144275527BA014C195D096E097F090F
:1008F0002AE0CE010E94F203800F911FDF91CF9179
:100900001F910F91FF90EF90DF90CF9008952AE014
:10091000B701A601CE01DF91CF911F910F91FF90FA
:10092000EF90DF90CF900C94F2039A01AB01662711
:1009300057FD6095762F0C944B04009729F0BC016D
:1009400080E090E00C9406090895CF93DF9300D0E7
:1009500000D0CDB7DEB79B01AC01611571058105F3
:10096000910569F069833A834B835C830E94010996
:1009700029813A814B815C810E94730803C060E049
:1009800070E0CB010F900F900F900F90DF91CF91FF
:1009900008950E94F9070E946101C8EAD5E00E940B
:1009A0007D012097E1F30E94A805F9CFFC01248581
:1009B0003585F901E05CFF4F80819181F901EE5BA3
:1009C000FF4F20813181821B930B8F7399270895EC
:1009D000FC0184859585FC01E05CFF4F40815181DD
:1009E000FC01EE5BFF4F208131814217530741F03C
:1009F0000190F081E02DE80FF91F808190E00895CB
:100A00008FEF9FEF0895FC0184859585FC01E05CE4
:100A1000FF4F40815181FC01EE5BFF4F208131810E
:100A20004217530779F0A081B181A80FB91F8C91AB
:100A3000208131812F5F3F4F2F73332731832083F4
:100A400090E008958FEF9FEF0895FC0181A1882326
:100A500029F0A489B5898C9186FFFBCF11A2089556
:100A6000CF93DF93FC0126853785D901A05CBF4F6A
:100A70008D919C91119701968F739927E901CE5B17
:100A8000DF4F4881598184179507D9F30D90BC91A8
:100A9000A02DA20FB31F6C93A685B785A05CBF4F96
:100AA00011969C938E93A689B7892C9181E090E052
:100AB000078C02C0880F991F0A94E2F7282B2C9309
:100AC00081E081A30488F589E02D808180648083A2
:100AD00081E090E0DF91CF91089508951F920F92E9
:100AE0000FB60F9211242F933F934F938F939F93A1
:100AF000EF93FF938091C00082FD1CC04091C6001F
:100B0000809133029091340201968F73992720913E
:100B10003502309136028217930771F0E09133026B
:100B2000F0913402ED50FE4F408390933402809355
:100B3000330202C08091C600FF91EF919F918F9187
:100B40004F913F912F910F900FBE0F901F901895CE
:100B50008DE891E00E94D604892B11F00C946D056C
:100B600008951F920F920FB60F9211242F933F9367
:100B70008F939F93EF93FF932091EF013091F001BA
:100B80008091F1019091F2012817390731F4809199
:100B9000C1008F7D8093C10014C0E091F101F091FC
:100BA000F201E155FE4F20818091F1019091F20117
:100BB00001968F7399279093F2018093F10120930E
:100BC000C600FF91EF919F918F913F912F910F90D0
:100BD0000FBE0F901F901895CF92DF92EF92FF9269
:100BE000CF93DF93EC016A017B01411581EE580739
:100BF00061057105F9F0EC89FD8981E090E008A0BC
:100C000002C0880F991F0A94E2F7808360E079E0C0
:100C10008DE390E0A70196010E945108215031090F
:100C2000410951095695479537952795211580E13A
:100C3000380798F0EC89FD89108260E874E88EE14D
:100C400090E0A70196010E94510821503109410905
:100C500051095695479537952795E889F989308345
:100C6000EA89FB89208319A2EE89FF89408181E00E
:100C700090E09C010C8C02C0220F331F0A94E2F713
:100C8000422B4083EE89FF8940819C010D8C02C07C
:100C9000220F331F0A94E2F7422B4083EE89FF892B
:100CA00040819C010E8C02C0220F331F0A94E2F790
:100CB000422B4083EE89FF8920810F8C02C0880F70
:100CC000991F0A94E2F7809582238083DF91CF9168
:100CD000FF90EF90DF90CF900895109290011092C6
:100CE0008F0188EE93E0A0E0B0E0809391019093B3
:100CF0009201A0939301B093940180E391E09093CB
:100D00008E0180938D0183EF91E090939A018093FF
:100D100099018FEA91E090939C0180939B0185EC6F
:100D200090E090939E0180939D0184EC90E09093DD
:100D3000A00180939F0180EC90E09093A2018093AA
:100D4000A10181EC90E09093A4018093A30182EC37
:100D500090E09093A6018093A50186EC90E090939B
:100D6000A8018093A70184E08093A90183E0809388
:100D7000AA0187E08093AB0185E08093AC0181E01C
:100D80008093AD010895833081F028F4813099F08B
:100D90008230A1F008958630A9F08730B9F0843010
:100DA000D1F4809180008F7D03C0809180008F7787
:100DB00080938000089584B58F7702C084B58F7DBD
:100DC00084BD08958091B0008F7703C08091B000FA
:100DD0008F7D8093B0000895CF93DF9390E0FC0166
:100DE000E458FF4F2491FC01E057FF4F8491882382
:100DF00049F190E0880F991FFC01E255FF4FA59142
:100E0000B4918C559F4FFC01C591D4919FB761114E
:100E100008C0F8948C91209582238C93888182233A
:100E20000AC0623051F4F8948C91322F30958323AC
:100E30008C938881822B888304C0F8948C91822BB8
:100E40008C939FBFDF91CF9108950F931F93CF9302
:100E5000DF931F92CDB7DEB7282F30E0F901E859B4
:100E6000FF4F8491F901E458FF4F1491F901E057C5
:100E7000FF4F04910023C9F0882321F069830E9469
:100E8000C3066981E02FF0E0EE0FFF1FEC55FF4F26
:100E9000A591B4919FB7F8948C91611103C01095FE
:100EA000812301C0812B8C939FBF0F90DF91CF9145
:100EB0001F910F9108951F920F920FB60F92112458
:100EC0002F933F938F939F93AF93BF93809138025B
:100ED00090913902A0913A02B0913B0230913702D1
:100EE00023E0230F2D3720F40196A11DB11D05C06D
:100EF00026E8230F0296A11DB11D2093370280938F
:100F0000380290933902A0933A02B0933B02809149
:100F10003C0290913D02A0913E02B0913F020196A9
:100F2000A11DB11D80933C0290933D02A0933E020F
:100F3000B0933F02BF91AF919F918F913F912F91BD
:100F40000F900FBE0F901F9018953FB7F8948091A7
:100F50003C0290913D02A0913E02B0913F0226B525
:100F6000A89B05C02F3F19F00196A11DB11D3FBFE1
:100F70006627782F892F9A2F620F711D811D911D71
:100F800042E0660F771F881F991F4A95D1F7089591
:100F9000CF92DF92EF92FF92CF93DF936B017C01B0
:100FA0000E94A507EB01C114D104E104F10479F01A
:100FB0000E94A5076C1B7D0B683E7340A0F381E087
:100FC000C81AD108E108F108C851DC4FECCFDF9115
:100FD000CF91FF90EF90DF90CF9008950197009709
:100FE00039F0880F991F880F991F02970197F1F721
:100FF0000895789484B5826084BD84B5816084BD91
:1010000085B5826085BD85B5816085BDEEE6F0E081
:10101000808181608083E1E8F0E0108280818260DD
:101020008083808181608083E0E8F0E0808181605E
:101030008083E1EBF0E0808184608083E0EBF0E08E
:10104000808181608083EAE7F0E080818460808332
:1010500080818260808380818160808380818068DC
:1010600080831092C10008958E3008F08E508770F2
:101070002091050190E4299F90011124822B8093F7
:101080007C0080917A00806480937A0080917A005D
:1010900086FDFCCF809178002091790090E0922B22
:1010A0000895A1E21A2EAA1BBB1BFD010DC0AA1FA9
:1010B000BB1FEE1FFF1FA217B307E407F50720F0C1
:1010C000A21BB30BE40BF50B661F771F881F991F3C
:1010D0001A9469F760957095809590959B01AC0185
:1010E000BD01CF010895052E97FB1EF400940E94C8
:1010F0008A0857FD07D00E94510807FC03D04EF420
:101100000C948A0850954095309521953F4F4F4F4C
:101110005F4F089590958095709561957F4F8F4FA3
:101120009F4F08950E94A308A59F900DB49F900D16
:10113000A49F800D911D11240895EE0FFF1F0590AF
:10114000F491E02D0994A29FB001B39FC001A39F29
:10115000700D811D1124911DB29F700D811D1124F0
:10116000911D08958F929F92AF92BF92CF92DF927E
:10117000EF92FF92CF93DF93EC01688179818A81AE
:101180009B81611571058105910521F464E279ED7A
:101190008BE597E02DE133EF41E050E00E947308CA
:1011A00049015A019B01AC01A7EAB1E40E949208EF
:1011B0006B017C01ACEEB4EFA50194010E94120911
:1011C000C60ED71EE81EF91EF7FE06C081E0C81A3B
:1011D000D108E10880E8F80AC882D982EA82FB8255
:1011E000C701B6019F77DF91CF91FF90EF90DF901D
:1011F000CF90BF90AF909F908F9008950E94B208BB
:10120000089580E091E00E94B20808956093000183
:101210007093010180930201909303010895B7FF39
:101220000C9492080E949208821B930B0895F894E4
:02123000FFCFEE
:1012320001000000010100004000140054003130A0
:101242007C002000207C0041323334353637383977
:10125200544A514B00000000A503AB0300000000FC
:0C1262003005AB03D6040305E8042505A5
:00000001FF
