:100000000C945E000C9486000C9486000C94860080
:100010000C9486000C9486000C9486000C94860048
:100020000C9486000C9486000C9486000C94860038
:100030000C9486000C9486000C9486000C94860028
:100040000C946F080C9486000C9482060C94C506E0
:100050000C9486000C9486000C9486000C94860008
:100060000C9486000C94860000000007000201003A
:100070000003040600000000000000000102040864
:100080001020408001020408102001020408102002
:10009000040404040404040402020202020203032E
:1000A0000303030300000000250028002B000000CC
:1000B0000000240027002A00E702810711241FBE48
:1000C000CFEFD8E0DEBFCDBF11E0A0E0B1E0EAE5C0
:1000D000F4E102C005900D92AC34B107D9F712E0FB
:1000E000ACE4B1E001C01D92A935B107E1F710E021
:1000F000CCEBD0E004C02297FE010E94B309C83BBC
:10010000D107C9F70E94DD050C942B0A0C9400005E
:10011000EF92FF920F931F93CF93DF938C01EC012B
:100120007C0184E3E80EF11C64E370E080E090E081
:100130000E94B9052881F801E60FF71F8081899395
:10014000208365E070E080E090E00E94DC08CE153E
:10015000DF0551F7DF91CF911F910F91FF90EF9045
:100160000895FC019F01281B390B41914111FACFE1
:10017000C9010895DF92EF92FF920F931F93CF93DF
:10018000DF937C01D62FC42FD22E462F6C2F81E90E
:1001900091E00E94AA036EE071E081E991E00E9483
:1001A000FD044D2F6C2F81E991E00E94AA03CE2D12
:1001B000DF2D00E010E0C7010E94B1000817190709
:1001C0001CF5DD2019F010161106A4F08881843585
:1001D00019F46FE171E010C06DE171E081E991E027
:1001E0000E94FD04688181E991E00E94FF0461E2C0
:1001F00071E002C063E271E081E991E00E94FD04D8
:100200000F5F1F4F2196D7CFDF91CF911F910F9195
:10021000FF90EF90DF900895A7E2B1E020E030E09A
:100220006D91FC01E20FF31F40E050E061934F5FDE
:100230005F4F44305105D1F72C5F3F4F24333105D8
:1002400079F70C948800EF92FF920F931F93CF934E
:10025000DF938C017B01EA0188819981C3972CF09F
:10026000CB010E94880019821882E881F981EE0D85
:10027000FF1D8081F8018083E881F981EE0DFF1D6B
:100280008181F80181831282888199810296998304
:100290008883DF91CF911F910F91FF90EF90089588
:1002A000EF92FF920F931F93CF93DF938C017B010B
:1002B000EA010E94B100059714F588819981C397DE
:1002C00014F019821882C8010E94B100E881F981F6
:1002D000EE0DFF1D2081F801E80FF91F2083118228
:1002E000288139812F5F3F4F39832883C701DF91F0
:1002F000CF911F910F91FF90EF900C948800DF91A8
:10030000CF911F910F91FF90EF9008958EE00E9482
:1003100048099C012F5933402B303105C8F09C010E
:10032000235833402B303105B0F09C012B52334021
:100330002B30310598F09C01245533402B3031058A
:1003400080F08F5592400B9778F080E090E0089510
:1003500081E090E0089582E090E0089583E090E0ED
:10036000089584E090E0089585E090E00895CF93AB
:10037000DF93EC010E94B100FE0140E050E020E07C
:1003800030E0BF016C1B7D0B68177907CCF46191DD
:10039000643531F076EB760F723010F0613519F478
:1003A000265F3F4FEECF613419F44F5F5F4FE9CFC7
:1003B000772767FD709560537109260F371FE1CFCE
:1003C0004115510589F080E090E04130510519F464
:1003D0002B3031051CF02F5F3F4F02C0255F3F4F90
:1003E0000196841795078CF3C901DF91CF91089589
:1003F000CF92DF92EF92FF920F931F93CF93DF93F1
:10040000EC017B016A0120E040E050E060E070E038
:100410000E94BA00CE010E94B701803191050CF50F
:10042000A601B701CE010E945001CE010E94B70182
:100430008C0120E040E050E060E070E0CE010E94DE
:10044000BA000631110544F40531110541F00031BF
:10045000110534F3C80105C08FEF9FEF02C085E19D
:1004600090E0DF91CF911F910F91FF90EF90DF907F
:10047000CF90089520E042E060E181E991E00E94A0
:10048000DF0340E855E260E070E086EA91E00E9418
:10049000000761E08AE00E94000861E08AE00E94B3
:1004A000390880E10E9448090C94B105CF93DF938D
:1004B000809104018823B1F08BE591E00E940C014A
:1004C00043E551E06BE571E085E591E00E94230191
:1004D00043E551E06BE571E08DE491E00E9423017A
:1004E00010920401C0918F01D09190018EE00E9482
:1004F0004809C817D907E1F18EE00E944809909396
:10050000900180938F010E9486018230910571F0E5
:1005100085309105B9F0019759F543E551E06BE558
:1005200071E085E591E00E94500122C043E551E071
:100530006BE571E08DE491E00E94F80181E0809329
:100540004C0116C08BE591E00E94880043E551E024
:100550006BE571E08DE491E00E94230143E551E0F9
:100560006BE571E085E591E00E94230110924C015A
:1005700080914C01811109C021E040E050E060E031
:1005800070E08DE491E00E94BA0020E040E050E08D
:1005900061E070E085E591E00E94BA0040E06EE025
:1005A00081E991E00E94AA0385E591E00E94B701EC
:1005B0004AE050E0BC0181E991E00E94A90564E6AF
:1005C00070E080E090E0DF91CF910C94DC08CF9256
:1005D000EF920F9387E0C82E96E0E92E05E024E025
:1005E00049E068E081E991E00E9493040F91EF9067
:1005F000CF900895CF93DF93EC0160E08E810E944D
:10060000390881E090E00E94020961E08E810E9439
:10061000390881E090E00E94020960E08E810E942A
:10062000390884E690E0DF91CF910C940209CF92D3
:10063000DF92EF92FF920F931F93CF93DF937C0192
:10064000C0E0D0E0C62ED12C87010C0F1D1F61E049
:10065000F80187810E940008B6010C2E02C0759532
:1006600067950A94E2F76170F80187810E94390862
:100670002196C430D10541F7C701DF91CF911F9179
:100680000F91FF90EF90DF90CF900C94FA02CF92F1
:10069000DF92EF92FF920F931F93CF93DF937C0132
:1006A000C0E0D0E0C62ED12C87010C0F1D1F61E0E9
:1006B000F80187810E940008B6010C2E02C07595D2
:1006C00067950A94E2F76170F80187810E94390802
:1006D0002196C830D10541F7C701DF91CF911F9115
:1006E0000F91FF90EF90DF90CF900C94FA021F9340
:1006F000CF93DF93EC01162F642F8C810E94390871
:100700008D818F3F19F060E00E9439088F85612F3D
:1007100084FF06C0CE01DF91CF911F910C94470357
:1007200070E084E0759567958A95E1F7CE010E94A7
:100730001703612FCE01DF91CF911F910C94170306
:1007400040E00C94770361E00E94A00380ED97E005
:100750000C940209CF93DF93CDB7DEB728970FB67D
:10076000F894DEBF0FBECDBF28E0E6E0F1E0DE0189
:10077000119601900D922A95E1F7FC012389421709
:1007800010F04FEF420FFE013196E40FF11DE40F20
:10079000F11D2081260F2068622F28960FB6F8944D
:1007A000DEBF0FBECDBFDF91CF910C94A003FC0143
:1007B0006089262F2460208B6C600C94A003CF935B
:1007C000DF93EC01423018F08F8588608F874B8B68
:1007D0001C8A222329F0413019F48F8584608F8789
:1007E00080E593EC0E94020960E08C810E94390848
:1007F00060E08E810E9439088D818F3F19F060E0A2
:100800000E9439086F8564FD1DC063E0CE010E941F
:10081000170384E991E10E94020963E0CE010E947E
:10082000170384E991E10E94020963E0CE010E946E
:10083000170386E990E00E94020962E0CE010E945F
:10084000170316C06062CE010E94A00384E991E103
:100850000E9402096F856062CE010E94A00386E9B2
:1008600090E00E9402096F856062CE010E94A003A1
:100870006F856062CE010E94A00384E0888BCE0168
:100880000E94D703CE010E94A30382E0898B66E019
:10089000CE01DF91CF910C94A0036F927F928F9243
:1008A000AF92CF92EF920F931F93CF93DF93CDB779
:1008B000DEB73C01162F842F5D854E853F859889D4
:1008C000F301848325830683E782C086A18682861E
:1008D000538744873587968761E00E940008F301BB
:1008E00085818F3F19F061E00E94000861E0F3010B
:1008F00086810E940008112319F0F301178603C0B6
:1009000080E1F301878720E041E060E1C301DF91EE
:10091000CF911F910F91EF90CF90AF908F907F90DC
:100920006F900C94DF038F92AF92CF92EF920F9360
:10093000DC0113961C921E921297E8E3F1E0ED930E
:10094000FC931F921F921F921F928C2CAE2CC02ED4
:10095000E22E042F2FEF462F61E00E944D040F90EE
:100960000F900F900F900F91EF90CF90AF908F90CE
:10097000089541E00E94770381E090E00895CF92CE
:10098000DF92EF92FF920F931F93CF93DF936C014F
:100990007A01EB01E60EF71E00E010E0CE15DF0550
:1009A00061F06991D601ED91FC910190F081E02D0B
:1009B000C6010995080F191FF1CFC801DF91CF912A
:1009C0001F910F91FF90EF90DF90CF9008956115E8
:1009D000710581F0DB010D900020E9F7AD01415078
:1009E0005109461B570BDC01ED91FC910280F3810C
:1009F000E02D099480E090E008950C94E704DC0178
:100A0000ED91FC910190F081E02D09948F929F92DD
:100A1000AF92BF92CF92DF92EF92FF920F931F930C
:100A2000CF93DF93CDB7DEB7A1970FB6F894DEBFB3
:100A30000FBECDBF7C01C42EE52FCB01D22E19A253
:100A400021E02D1510F02AE0D22E8E010F5D1F4FF0
:100A50008D2C912CA12CB12C6C2D7E2FA5019401F5
:100A60000E9465098C2DD29E801911240150110914
:100A70008A3014F4805D01C0895CF80180832115FF
:100A800031054105510521F0C22EE32FCA01E4CF03
:100A9000B801C7010E94E704A1960FB6F894DEBF23
:100AA0000FBECDBFDF91CF911F910F91FF90EF90BF
:100AB000DF90CF90BF90AF909F908F900895CF928E
:100AC000DF92EF92FF920F931F93CF93DF93EC018E
:100AD0006A017B012115310579F4E881F9810190E2
:100AE000F081E02D642FDF91CF911F910F91FF9046
:100AF000EF90DF90CF9009942A303105E9F477FF29
:100B00001AC06DE20E94FF048C0144275527BA01E8
:100B10004C195D096E097F092AE0CE010E94060585
:100B2000800F911FDF91CF911F910F91FF90EF9058
:100B3000DF90CF9008952AE0B701A601CE01DF91A2
:100B4000CF911F910F91FF90EF90DF90CF900C9479
:100B500006059A01AB01662757FD6095762F0C9428
:100B60005F05009729F0BC0180E090E00C941A0A20
:100B70000895CF93DF9300D000D0CDB7DEB79B01AF
:100B8000AC01611571058105910569F069833A83AE
:100B90004B835C830E94150A29813A814B815C81D9
:100BA0000E94870903C060E070E0CB010F900F90B6
:100BB0000F900F90DF91CF9108950E940D090E9430
:100BC0003A02CCEBD6E00E9456022097E1F30E9455
:100BD000BC06F9CFFC0124853585F901E05CFF4FA7
:100BE00080819181F901EE5BFF4F20813181821B71
:100BF000930B8F7399270895FC0184859585FC01DB
:100C0000E05CFF4F40815181FC01EE5BFF4F208192
:100C100031814217530741F00190F081E02DE80F38
:100C2000F91F808190E008958FEF9FEF0895FC01F8
:100C300084859585FC01E05CFF4F40815181FC017A
:100C4000EE5BFF4F208131814217530779F0A0817D
:100C5000B181A80FB91F8C91208131812F5F3F4F47
:100C60002F7333273183208390E008958FEF9FEF18
:100C70000895FC0181A1882329F0A489B5898C916C
:100C800086FFFBCF11A20895CF93DF93FC01268549
:100C90003785D901A05CBF4F8D919C91119701962A
:100CA0008F739927E901CE5BDF4F48815981841703
:100CB0009507D9F30D90BC91A02DA20FB31F6C9393
:100CC000A685B785A05CBF4F11969C938E93A6898D
:100CD000B7892C9181E090E0078C02C0880F991FA2
:100CE0000A94E2F7282B2C9381E081A30488F589EC
:100CF000E02D80818064808381E090E0DF91CF915E
:100D0000089508951F920F920FB60F9211242F93FA
:100D10003F934F938F939F93EF93FF938091C000E6
:100D200082FD1CC04091C60080914C0290914D0202
:100D300001968F73992720914E0230914F028217AE
:100D4000930771F0E0914C02F0914D02E45FFD4F8A
:100D5000408390934D0280934C0202C08091C60064
:100D6000FF91EF919F918F914F913F912F910F9014
:100D70000FBE0F901F90189586EA91E00E94EA0539
:100D8000892B11F00C94810608951F920F920FB6D3
:100D90000F9211242F933F938F939F93EF93FF9381
:100DA000209108023091090280910A0290910B0271
:100DB0002817390731F48091C1008F7D8093C100DD
:100DC00014C0E0910A02F0910B02E853FE4F20811B
:100DD00080910A0290910B0201968F73992790934C
:100DE0000B0280930A022093C600FF91EF919F911E
:100DF0008F913F912F910F900FBE0F901F901895DC
:100E0000CF92DF92EF92FF92CF93DF93EC016A01D2
:100E10007B01411581EE580761057105F9F0EC89F8
:100E2000FD8981E090E008A002C0880F991F0A9414
:100E3000E2F7808360E079E08DE390E0A70196011E
:100E40000E9465092150310941095109569547957C
:100E500037952795211580E1380798F0EC89FD89B1
:100E6000108260E874E88EE190E0A70196010E948C
:100E70006509215031094109510956954795379522
:100E80002795E889F9893083EA89FB89208319A2AB
:100E9000EE89FF89408181E090E09C010C8C02C0CA
:100EA000220F331F0A94E2F7422B4083EE89FF8919
:100EB00040819C010D8C02C0220F331F0A94E2F77F
:100EC000422B4083EE89FF8940819C010E8C02C039
:100ED000220F331F0A94E2F7422B4083EE89FF89E9
:100EE00020810F8C02C0880F991F0A94E2F7809529
:100EF00082238083DF91CF91FF90EF90DF90CF909E
:100F000008951092A9011092A80188EE93E0A0E044
:100F1000B0E08093AA019093AB01A093AC01B09391
:100F2000AD0180E491E09093A7018093A6018CE04D
:100F300092E09093B3018093B20188EC91E090939A
:100F4000B5018093B40185EC90E09093B701809354
:100F5000B60184EC90E09093B9018093B80180ECE5
:100F600090E09093BB018093BA0181EC90E0909364
:100F7000BD018093BC0182EC90E09093BF0180930F
:100F8000BE0186EC90E09093C1018093C00184E0A3
:100F90008093C20183E08093C30187E08093C40102
:100FA00085E08093C50181E08093C6010895833078
:100FB00081F028F4813099F08230A1F008958630D4
:100FC000A9F08730B9F08430D1F4809180008F7D12
:100FD00003C0809180008F7780938000089584B54E
:100FE0008F7702C084B58F7D84BD08958091B00055
:100FF0008F7703C08091B0008F7D8093B0000895FB
:10100000CF93DF9390E0FC01E458FF4F2491FC0163
:10101000E057FF4F8491882349F190E0880F991F92
:10102000FC01E255FF4FA591B4918C559F4FFC01F7
:10103000C591D4919FB7611108C0F8948C91209507
:1010400082238C93888182230AC0623051F4F89401
:101050008C91322F309583238C938881822B8883C7
:1010600004C0F8948C91822B8C939FBFDF91CF9119
:1010700008950F931F93CF93DF931F92CDB7DEB7E1
:10108000282F30E0F901E859FF4F8491F901E45825
:10109000FF4F1491F901E057FF4F04910023C9F06D
:1010A000882321F069830E94D7076981E02FF0E04F
:1010B000EE0FFF1FEC55FF4FA591B4919FB7F89429
:1010C0008C91611103C01095812301C0812B8C93F9
:1010D0009FBF0F90DF91CF911F910F9108951F92A5
:1010E0000F920FB60F9211242F933F938F939F93DC
:1010F000AF93BF938091510290915202A0915302FD
:10110000B09154023091500223E0230F2D3720F488
:101110000196A11DB11D05C026E8230F0296A11D51
:10112000B11D209350028093510290935202A093DC
:101130005302B09354028091550290915602A091AF
:101140005702B09158020196A11DB11D809355021E
:1011500090935602A0935702B0935802BF91AF915B
:101160009F918F913F912F910F900FBE0F901F90E5
:1011700018953FB7F8948091550290915602A0912E
:101180005702B091580226B5A89B05C02F3F19F011
:101190000196A11DB11D3FBF6627782F892F9A2F79
:1011A000620F711D811D911D42E0660F771F881F20
:1011B000991F4A95D1F70895CF92DF92EF92FF924F
:1011C000CF93DF936B017C010E94B908EB01C1143E
:1011D000D104E104F10479F00E94B9086C1B7D0B85
:1011E000683E7340A0F381E0C81AD108E108F10815
:1011F000C851DC4FECCFDF91CF91FF90EF90DF90A3
:10120000CF9008950197009739F0880F991F880FA4
:10121000991F02970197F1F70895789484B5826039
:1012200084BD84B5816084BD85B5826085BD85B58A
:10123000816085BDEEE6F0E0808181608083E1E839
:10124000F0E0108280818260808380818160808371
:10125000E0E8F0E0808181608083E1EBF0E0808174
:1012600084608083E0EBF0E0808181608083EAE746
:10127000F0E08081846080838081826080838081CF
:10128000816080838081806880831092C10008958E
:101290008E3008F08E5087702091050190E4299FD0
:1012A00090011124822B80937C0080917A008064CD
:1012B00080937A0080917A0086FDFCCF809178003F
:1012C0002091790090E0922B0895A1E21A2EAA1B9A
:1012D000BB1BFD010DC0AA1FBB1FEE1FFF1FA217E6
:1012E000B307E407F50720F0A21BB30BE40BF50BE3
:1012F000661F771F881F991F1A9469F7609570956C
:10130000809590959B01AC01BD01CF010895052EFC
:1013100097FB1EF400940E949E0957FD07D00E947F
:10132000650907FC03D04EF40C949E095095409536
:10133000309521953F4F4F4F5F4F08959095809581
:10134000709561957F4F8F4F9F4F08950E94B70909
:10135000A59F900DB49F900DA49F800D911D112409
:101360000895EE0FFF1F0590F491E02D0994A29FC0
:10137000B001B39FC001A39F700D811D1124911D69
:10138000B29F700D811D1124911D08958F929F921F
:10139000AF92BF92CF92DF92EF92FF92CF93DF9303
:1013A000EC01688179818A819B81611571058105D4
:1013B000910521F464E279ED8BE597E02DE133EFBF
:1013C00041E050E00E94870949015A019B01AC01AC
:1013D000A7EAB1E40E94A6096B017C01ACEEB4EF70
:1013E000A50194010E94260AC60ED71EE81EF91E0A
:1013F000F7FE06C081E0C81AD108E10880E8F80AC3
:10140000C882D982EA82FB82C701B6019F77DF9149
:10141000CF91FF90EF90DF90CF90BF90AF909F90D3
:101420008F9008950E94C609089580E091E00E947F
:10143000C609089560930001709301018093020131
:10144000909303010895B7FF0C94A6090E94A60982
:0A145000821B930B0895F894FFCF60
:10145A000100000001010000400014005400202097
:10146A002020202020202020202020202020003181
:10147A00307C00203F7C00413233343536373839EE
:10148A00544A514B00000000B904BF040000000098
:0C149A004406BF04EA051706FC053906ED
:00000001FF
