:100000000C945E000C9486000C9486000C94860080
:100010000C9486000C9486000C9486000C94860048
:100020000C9486000C9486000C9486000C94860038
:100030000C9486000C9486000C9486000C94860028
:100040000C949F0C0C9486000C94A2080C94E50868
:100050000C9486000C9486000C9486000C94860008
:100060000C9486000C94860000000007000201003A
:100070000003040600000000000000000102040864
:100080001020408001020408102001020408102002
:10009000040404040404040402020202020203032E
:1000A0000303030300000000250028002B000000CC
:1000B0000000240027002A008204A10911241FBE89
:1000C000CFEFD8E0DEBFCDBF11E0A0E0B1E0EAEDB8
:1000D000FCE102C005900D92A837B107D9F712E0F4
:1000E000A8E7B1E001C01D92AF38B107E1F710E019
:1000F000CCEBD0E004C02297FE010E94E30DC83B88
:10010000D107C9F70E9478070C946B0E0C9400007D
:10011000EF92FF920F931F93CF93DF938C01EC012B
:100120007C0184E3E80EF11C64E370E080E090E081
:100130000E9454072881F801E60FF71F80818993F8
:10014000208365E070E080E090E00E940C0DCE1509
:10015000DF0551F7DF91CF911F910F91FF90EF9045
:100160000895FC019F01281B390B41914111FACFE1
:10017000C9010895DF92EF92FF920F931F93CF93DF
:10018000DF937C01D62FC42FD22E462F6C2F83EC09
:1001900091E00E94450564E171E083EC91E00E94EA
:1001A00098064D2F6C2F83EC91E00E944505CE2DD3
:1001B000DF2D00E010E0C7010E94B1000817190709
:1001C0001CF5DD2019F010161106A4F08881843585
:1001D00019F465E271E010C063E271E083EC91E034
:1001E0000E949806688183EC91E00E949A0667E27B
:1001F00071E002C069E271E083EC91E00E94980630
:100200000F5F1F4F2196D7CFDF91CF911F910F9195
:10021000FF90EF90DF900895A2E5B1E020E030E09C
:100220006D91FC01E20FF31F40E050E061934F5FDE
:100230005F4F44305105D1F72C5F3F4F24333105D8
:1002400079F70C948800EF92FF920F931F93CF934E
:10025000DF938C017B01EA0188819981C3972CF09F
:10026000CB010E94880019821882E881F981EE0D85
:10027000FF1D8081F8018083E881F981EE0DFF1D6B
:100280008181F80181831282888199810296998304
:100290008883DF91CF911F910F91FF90EF90089588
:1002A000EF92FF920F931F93CF93DF938C017B010B
:1002B000EA010E94B100069714F588819981C397DD
:1002C00014F019821882C8010E94B100E881F981F6
:1002D000EE0DFF1D2081F801E80FF91F2083118228
:1002E000288139812F5F3F4F39832883C701DF91F0
:1002F000CF911F910F91FF90EF900C948800DF91A8
:10030000CF911F910F91FF90EF9008958EE00E9482
:10031000780D9C012F5933402B303105C8F09C01DA
:10032000235833402B303105B0F09C012B52334021
:100330002B30310598F09C01245533402B3031058A
:1003400080F08F5592400B9778F080E090E0089510
:1003500081E090E0089582E090E0089583E090E0ED
:10036000089584E090E0089585E090E00895CF93AB
:10037000DF93EC010E94B100FE0140E050E020E07C
:1003800030E0BF016C1B7D0B68177907CCF46191DD
:10039000643531F076EB760F723010F0613519F478
:1003A000265F3F4FEECF613419F44F5F5F4FE9CFC7
:1003B000772767FD709560537109260F371FE1CFCE
:1003C0004115510589F080E090E04130510519F464
:1003D0002B3031051CF02F5F3F4F02C0255F3F4F90
:1003E0000196841795078CF3263131051CF08FEFA9
:1003F0009FEF01C0C901DF91CF910895CF93DF93A3
:10040000EC010E94B100FE0140E050E020E030E04D
:10041000BF016C1B7D0B68177907CCF461916435C3
:1004200031F076EB760F723010F0613519F4265FFB
:100430003F4FEECF613419F44F5F5F4FE9CF77271D
:1004400067FD709560537109260F371FE1CF411585
:10045000510589F080E090E04130510519F42B30CE
:1004600031051CF02F5F3F4F02C0255F3F4F0196C3
:10047000841795078CF3C901DF91CF910895CF932D
:10048000DF93EC010E945001CE010E94B70186313A
:10049000910514F08FEF9FEFDF91CF910895CF92E8
:1004A000DF92EF92FF920F931F93CF93DF93EC01B4
:1004B0007B016A0120E040E050E060E070E00E94D3
:1004C000BA00CE010E94B7018131910514F5A60151
:1004D000B701CE010E945001CE010E94B7018C01EC
:1004E00020E040E050E060E070E0CE010E94BA0001
:1004F0000F3F8FEF180741F00531110541F0003132
:1005000011052CF3C80105C08FEF9FEF02C085E1F4
:1005100090E0DF91CF911F910F91FF90EF90DF90CE
:10052000CF900895EF92FF920F931F93CF93DF9395
:10053000CDB7DEB727970FB6F894DEBF0FBECDBF9D
:100540008C017B0141E06A30710514F06EE001C05E
:100550006FE083EC91E00E9445054AE050E0B7016E
:1005600083EC91E00E94440740E06DE083EC91E071
:100570000E9445056DE271E083EC91E00E949806CF
:1005800068EE73E080E090E00E940C0DB801CE01AF
:1005900001960E94F30760E18D81681B40E083ECC7
:1005A00091E00E944505CE0101960E948507B801A1
:1005B00083EC91E00E94980664EF71E080E090E0A7
:1005C0000E940C0D0E948601892BE1F327960FB63D
:1005D000F894DEBF0FBECDBFDF91CF911F910F9179
:1005E000FF90EF9008956F927F928F929F92AF92BB
:1005F000BF92CF92DF92EF92FF920F931F93CF9310
:10060000DF935C013B01EA014901CA010E948800B5
:10061000A701BE01C3010E942301A701BE01C501BC
:100620000E942301F6011082F80111821082F40168
:1006300011821082DF91CF911F910F91FF90EF9067
:10064000DF90CF90BF90AF909F908F907F906F90F2
:10065000089520E042E060E183EC91E00E947A0599
:1006600040E855E260E070E088ED91E00E942009EA
:1006700061E08AE00E94300C61E08AE00E94690C2F
:1006800080E10E94780D0C944C07CF92DF92EF929C
:10069000FF920F931F93CF93DF9300D0CDB7DEB7B8
:1006A000809104018823D1F18DE891E00E940C0132
:1006B00044E851E06DE871E086E891E00E94230192
:1006C00044E851E06DE871E08DE791E00E9423017C
:1006D00086E891E00E94B70190937C0180937B01B2
:1006E0004597D1F465E170E081E391E00E949202C8
:1006F00068E7C62E61E0D62E74E8E72E71E0F72E8B
:1007000009E711E02BE731E04DE851E06DE771E0DA
:1007100086E891E00E94F302109204010091C10169
:100720001091C2018EE00E94780D0817190709F494
:1007300042C08EE00E94780D9093C2018093C10167
:100740000E9486018230910591F085309105F9F083
:10075000019789F544E851E06DE871E086E891E0A1
:100760000E943F0290937C0180937B0124C044E867
:1007700051E06DE871E08DE791E00E944F029093A7
:100780007A018093790181E08093780114C048E771
:10079000C42E41E0D42E54E8E52E51E0F52E09E7B1
:1007A00011E02BE731E04DE851E06DE771E086E8BC
:1007B00091E00E94F30220E040E050E061E070E050
:1007C00086E891E00E94BA0086E891E00E94B701B5
:1007D0008531910539F460917B0170917C018CE346
:1007E00091E009C00196E9F486E891E00E94FE01DB
:1007F000BC0181E491E00E94920228E7C22E21E030
:10080000D22E34E8E32E31E0F32E09E711E02BE796
:1008100031E04DE851E06DE771E086E891E00E943B
:10082000F302809178018823D9F120E040E050E084
:1008300060E070E08DE791E00E94BA0086E891E008
:100840000E94B701BC018DE791E069837A830E9421
:10085000B70169817A81861797071CF48CE391E0D0
:1008600008C06817790719F487E491E002C08CE4A6
:1008700091E00E94920288E7C82E81E0D82E94E889
:10088000E92E91E0F92E09E711E02BE731E04DE880
:1008900051E06DE771E086E891E00E94F30209C043
:1008A00021E040E050E060E070E08DE791E00E94E0
:1008B000BA0086E891E00E94B70141E00A9714F07F
:1008C0006EE001C06FE083EC91E00E94450586E890
:1008D00091E00E94B7014AE050E0BC0183EC91E056
:1008E0000E94440764E670E080E090E00F900F9073
:1008F000DF91CF911F910F91FF90EF90DF90CF90FC
:100900000C940C0DCF92EF920F93E7E0CE2EF6E011
:10091000EF2E05E024E049E068E083EC91E00E94DE
:100920002E060F91EF90CF900895CF93DF93EC01B7
:1009300060E08E810E94690C81E090E00E94320D9F
:1009400061E08E810E94690C81E090E00E94320D8E
:1009500060E08E810E94690C84E690E0DF91CF9187
:100960000C94320DCF92DF92EF92FF920F931F9370
:10097000CF93DF937C01C0E0D0E0C62ED12C87015D
:100980000C0F1D1F61E0F80187810E94300CB60139
:100990000C2E02C0759567950A94E2F76170F80114
:1009A00087810E94690C2196C430D10541F7C701A7
:1009B000DF91CF911F910F91FF90EF90DF90CF903B
:1009C0000C949504CF92DF92EF92FF920F931F93B6
:1009D000CF93DF937C01C0E0D0E0C62ED12C8701FD
:1009E0000C0F1D1F61E0F80187810E94300CB601D9
:1009F0000C2E02C0759567950A94E2F76170F801B4
:100A000087810E94690C2196C830D10541F7C70142
:100A1000DF91CF911F910F91FF90EF90DF90CF90DA
:100A20000C9495041F93CF93DF93EC01162F642F42
:100A30008C810E94690C8D818F3F19F060E00E94CB
:100A4000690C8F85612F84FF06C0CE01DF91CF91A5
:100A50001F910C94E20470E084E0759567958A9587
:100A6000E1F7CE010E94B204612FCE01DF91CF9158
:100A70001F910C94B20440E00C94120561E00E94B6
:100A80003B0580ED97E00C94320DCF93DF93CDB70B
:100A9000DEB728970FB6F894DEBF0FBECDBF28E0B3
:100AA000ECE0F1E0DE01119601900D922A95E1F75C
:100AB000FC012389421710F04FEF420FFE013196DF
:100AC000E40FF11DE40FF11D2081260F2068622F35
:100AD00028960FB6F894DEBF0FBECDBFDF91CF9141
:100AE0000C943B05FC016089262F2460208B6C60F0
:100AF0000C943B05CF93DF93EC01423018F08F85C7
:100B000088608F874B8B1C8A222329F0413019F48F
:100B10008F8584608F8780E593EC0E94320D60E0C2
:100B20008C810E94690C60E08E810E94690C8D812D
:100B30008F3F19F060E00E94690C6F8564FD1DC055
:100B400063E0CE010E94B20484E991E10E94320D7B
:100B500063E0CE010E94B20484E991E10E94320D6B
:100B600063E0CE010E94B20486E990E00E94320D5B
:100B700062E0CE010E94B20416C06062CE010E9403
:100B80003B0584E991E10E94320D6F856062CE01E0
:100B90000E943B0586E990E00E94320D6F856062FD
:100BA000CE010E943B056F856062CE010E943B052D
:100BB00084E0888BCE010E947205CE010E943E0522
:100BC00082E0898B66E0CE01DF91CF910C943B05EA
:100BD0006F927F928F92AF92CF92EF920F931F936B
:100BE000CF93DF93CDB7DEB73C01162F842F5D8501
:100BF0004E853F859889F301848325830683E782A8
:100C0000C086A1868286538744873587968761E0B0
:100C10000E94300CF30185818F3F19F061E00E9442
:100C2000300C61E0F30186810E94300C112319F031
:100C3000F301178603C080E1F301878720E041E0DC
:100C400060E1C301DF91CF911F910F91EF90CF90A1
:100C5000AF908F907F906F900C947A058F92AF92A7
:100C6000CF92EF920F93DC0113961C921E92129773
:100C7000E3E6F1E0ED93FC931F921F921F921F9207
:100C80008C2CAE2CC02EE22E042F2FEF462F61E0CD
:100C90000E94E8050F900F900F900F900F91EF902A
:100CA000CF90AF908F90089541E00E94120581E0AF
:100CB00090E00895CF92DF92EF92FF920F931F93EF
:100CC000CF93DF936C017A01EB01E60EF71E00E093
:100CD00010E0CE15DF0561F06991D601ED91FC9130
:100CE0000190F081E02DC6010995080F191FF1CF81
:100CF000C801DF91CF911F910F91FF90EF90DF908E
:100D0000CF9008956115710581F0DB010D900020F1
:100D1000E9F7AD0141505109461B570BDC01ED913C
:100D2000FC910280F381E02D099480E090E0089529
:100D30000C948206DC01ED91FC910190F081E02D94
:100D400009948F929F92AF92BF92CF92DF92EF92CF
:100D5000FF920F931F93CF93DF93CDB7DEB7A19789
:100D60000FB6F894DEBF0FBECDBF7C01C42EE52FB9
:100D7000CB01D22E19A221E02D1510F02AE0D22E9F
:100D80008E010F5D1F4F8D2C912CA12CB12C6C2D41
:100D90007E2FA50194010E94950D8C2DD29E801965
:100DA0001124015011098A3014F4805D01C0895C5E
:100DB000F8018083211531054105510521F0C22E2E
:100DC000E32FCA01E4CFB801C7010E948206A196B1
:100DD0000FB6F894DEBF0FBECDBFDF91CF911F914C
:100DE0000F91FF90EF90DF90CF90BF90AF909F90CA
:100DF0008F900895CF92DF92EF92FF920F931F93FF
:100E0000CF93DF93EC016A017B012115310579F461
:100E1000E881F9810190F081E02D642FDF91CF917D
:100E20001F910F91FF90EF90DF90CF9009942A309F
:100E30003105E9F477FF1AC06DE20E949A068C0131
:100E400044275527BA014C195D096E097F092AE02C
:100E5000CE010E94A106800F911FDF91CF911F91BB
:100E60000F91FF90EF90DF90CF9008952AE0B701A7
:100E7000A601CE01DF91CF911F910F91FF90EF90CE
:100E8000DF90CF900C94A1069A01AB01662757FD25
:100E90006095762F0C94FA06009729F0BC0180E04B
:100EA00090E00C944A0E0895CF93DF9300D000D0C9
:100EB000CDB7DEB79B01AC016115710581059105C8
:100EC00069F069833A834B835C830E94450E2981D4
:100ED0003A814B815C810E94B70D03C060E070E0F5
:100EE000CB010F900F900F900F90DF91CF9108954D
:100EF0000E943D0D0E942903CCEDD8E00E944503DD
:100F00002097E1F30E94DC08F9CFFC0180819181F8
:100F10000C94780BCF93DF93EC0188819981009733
:100F200011F00E94780B198218821D821C821B828C
:100F30001A82DF91CF9108950F931F93CF93DF9380
:100F4000EC018B016F5F7F4F888199810E94F709C7
:100F5000009731F0998388831B830A8381E001C065
:100F600080E0DF91CF911F910F910895CF93DF9390
:100F7000EC0188819981892B29F08A819B818617D0
:100F8000970760F4CE010E949C07882341F08C8172
:100F90009D81892B19F4E881F981108281E0DF912C
:100FA000CF910895EF92FF920F931F93CF93DF930A
:100FB000EC017B018A01BA010E94B607811104C0CD
:100FC000CE010E948A0707C01D830C83B701888168
:100FD00099810E945C0ECE01DF91CF911F910F91FC
:100FE000FF90EF900895FC0111821082138212820B
:100FF0001582148216826115710559F0FB0101906A
:101000000020E9F7AF0141505109461B570B0C94E2
:10101000D2070895FC0124853585F901E05CFF4F76
:1010200080819181F901EE5BFF4F20813181821B2C
:10103000930B8F7399270895FC0184859585FC0196
:10104000E05CFF4F40815181FC01EE5BFF4F20814E
:1010500031814217530741F00190F081E02DE80FF4
:10106000F91F808190E008958FEF9FEF0895FC01B4
:1010700084859585FC01E05CFF4F40815181FC0136
:10108000EE5BFF4F208131814217530779F0A08139
:10109000B181A80FB91F8C91208131812F5F3F4F03
:1010A0002F7333273183208390E008958FEF9FEFD4
:1010B0000895FC0181A1882329F0A489B5898C9128
:1010C00086FFFBCF11A20895CF93DF93FC01268505
:1010D0003785D901A05CBF4F8D919C9111970196E6
:1010E0008F739927E901CE5BDF4F488159818417BF
:1010F0009507D9F30D90BC91A02DA20FB31F6C934F
:10110000A685B785A05CBF4F11969C938E93A68948
:10111000B7892C9181E090E0078C02C0880F991F5D
:101120000A94E2F7282B2C9381E081A30488F589A7
:10113000E02D80818064808381E090E0DF91CF9119
:10114000089508951F920F920FB60F9211242F93B6
:101150003F934F938F939F93EF93FF938091C000A2
:1011600082FD1CC04091C60080917E0290917F025A
:1011700001968F7399272091800230918102821706
:10118000930771F0E0917E02F0917F02E25CFD4FE7
:10119000408390937F0280937E0202C08091C600BC
:1011A000FF91EF919F918F914F913F912F910F90D0
:1011B0000FBE0F901F90189588ED91E00E940A08CD
:1011C000892B11F00C94A10808951F920F920FB66D
:1011D0000F9211242F933F938F939F93EF93FF933D
:1011E00020913A0230913B0280913C0290913D0265
:1011F0002817390731F48091C1008F7D8093C10099
:1012000014C0E0913C02F0913D02E650FE4F208177
:1012100080913C0290913D0201968F7399279093A3
:101220003D0280933C022093C600FF91EF919F9175
:101230008F913F912F910F900FBE0F901F90189597
:10124000CF92DF92EF92FF92CF93DF93EC016A018E
:101250007B01411581EE580761057105F9F0EC89B4
:10126000FD8981E090E008A002C0880F991F0A94D0
:10127000E2F7808360E079E08DE390E0A7019601DA
:101280000E94950D21503109410951095695479504
:1012900037952795211580E1380798F0EC89FD896D
:1012A000108260E874E88EE190E0A70196010E9448
:1012B000950D2150310941095109569547953795AA
:1012C0002795E889F9893083EA89FB89208319A267
:1012D000EE89FF89408181E090E09C010C8C02C086
:1012E000220F331F0A94E2F7422B4083EE89FF89D5
:1012F00040819C010D8C02C0220F331F0A94E2F73B
:10130000422B4083EE89FF8940819C010E8C02C0F4
:10131000220F331F0A94E2F7422B4083EE89FF89A4
:1013200020810F8C02C0880F991F0A94E2F78095E4
:1013300082238083DF91CF91FF90EF90DF90CF9059
:1013400008951092DB011092DA0188EE93E0A0E09C
:10135000B0E08093DC019093DD01A093DE01B093B7
:10136000DF018BE691E09093D9018093D8018EE361
:1013700092E09093E5018093E4018AEF91E09093ED
:10138000E7018093E60185EC90E09093E90180937A
:10139000E80184EC90E09093EB018093EA0180EC0B
:1013A00090E09093ED018093EC0181EC90E09093BC
:1013B000EF018093EE0182EC90E09093F101809335
:1013C000F00186EC90E09093F3018093F20184E0C9
:1013D0008093F40183E08093F50187E08093F60128
:1013E00085E08093F70181E08093F80108956F9282
:1013F0007F928F929F92AF92BF92CF92DF92EF92A5
:10140000FF920F931F93CF93DF93EC01CB012097B3
:1014100081F4DF91CF911F910F91FF90EF90DF90BA
:10142000CF90BF90AF909F908F907F906F900C94D3
:10143000E00AFE01E60FF71F9E0122503109E21774
:10144000F30708F4ACC0D9010D911C911197061750
:101450001707B8F00530110508F49FC0A8014450E3
:1014600051094617570708F498C002501109061B86
:10147000170B019311936D937C93CF010E94780B0E
:101480008CC05B01A01AB10A4E01800E911EA09182
:101490008D02B0918E02612C712C60E070E010978B
:1014A00009F449C0A815B905C9F5ED90FC9011974C
:1014B000670142E0C40ED11CCA14DB0478F1470175
:1014C0008A189B08640142E0C40ED11C1296BC909D
:1014D00012971396AC91B5E0CB16D10440F0B282CE
:1014E000A38391828082D9018D939C9309C00E5F62
:1014F0001F4F0E0D1F1DF90111830083EB2DFA2FD5
:101500006115710531F0DB011396FC93EE93129790
:1015100044C0F0938E02E0938D023FC06D917C91A8
:1015200011976616770608F43B01BD0112960D90DF
:10153000BC91A02DB4CF60918B0270918C02681584
:101540007905E9F468167906D0F4409105015091C7
:1015500006014115510541F44DB75EB7609109018F
:1015600070910A01461B570BE417F507C0F4F0937E
:101570008C02E0938B02F901918380830EC00E945C
:10158000E00A7C01009759F0A801BE010E94530EA9
:10159000CE010E94780BC70104C0CE0102C080E0DA
:1015A00090E0DF91CF911F910F91FF90EF90DF902E
:1015B000CF90BF90AF909F908F907F906F90089545
:1015C000CF93DF938230910510F482E090E0E091B8
:1015D0008D02F0918E0220E030E0A0E0B0E0309784
:1015E00039F14081518148175907B8F04817590718
:1015F00071F482819381109729F013969C938E93B6
:1016000012972CC090938E0280938D0227C02115D3
:10161000310531F04217530718F0A901DB0101C071
:10162000EF019A01BD01DF010280F381E02DD7CFE8
:1016300021153105F9F0281B390B2430310580F4D0
:101640008A819B816115710521F0FB01938382835F
:1016500004C090938E0280938D02FE01329644C0A6
:10166000FE01E20FF31F81939193225031093983D8
:1016700028833AC020918B0230918C02232B41F4B5
:10168000209107013091080130938C0220938B0246
:1016900020910501309106012115310541F42DB746
:1016A0003EB74091090150910A01241B350BE0918E
:1016B0008B02F0918C02E217F307A0F42E1B3F0B74
:1016C0002817390778F0AC014E5F5F4F24173507B4
:1016D00048F04E0F5F1F50938C0240938B02819312
:1016E000919302C0E0E0F0E0CF01DF91CF91089547
:1016F000CF93DF93009709F487C0FC0132971382E0
:101700001282C0918D02D0918E02209781F42081A7
:101710003181280F391F80918B0290918C028217A2
:10172000930779F5F0938C02E0938B026DC0DE0194
:1017300020E030E0AE17BF0750F412964D915C9157
:1017400013979D014115510509F1DA01F3CFB383D8
:10175000A28340815181840F951F8A179B0771F4E2
:101760008D919C911197840F951F02969183808390
:1017700012968D919C911397938382832115310545
:1017800029F4F0938E02E0938D023EC0D9011396A6
:10179000FC93EE9312974D915D91A40FB51FEA173C
:1017A000FB0779F480819181840F951F0296D901FE
:1017B00011969C938E938281938113969C938E9322
:1017C0001297E0E0F0E08A819B81009719F0FE011A
:1017D000EC01F9CFCE01029628813981820F931F47
:1017E00020918B0230918C022817390769F43097C9
:1017F00029F410928E0210928D0202C0138212827E
:10180000D0938C02C0938B02DF91CF9108958330E7
:1018100081F028F4813099F08230A1F0089586306B
:10182000A9F08730B9F08430D1F4809180008F7DA9
:1018300003C0809180008F7780938000089584B5E5
:101840008F7702C084B58F7D84BD08958091B000EC
:101850008F7703C08091B0008F7D8093B000089592
:10186000CF93DF9390E0FC01E458FF4F2491FC01FB
:10187000E057FF4F8491882349F190E0880F991F2A
:10188000FC01E255FF4FA591B4918C559F4FFC018F
:10189000C591D4919FB7611108C0F8948C9120959F
:1018A00082238C93888182230AC0623051F4F89499
:1018B0008C91322F309583238C938881822B88835F
:1018C00004C0F8948C91822B8C939FBFDF91CF91B1
:1018D00008950F931F93CF93DF931F92CDB7DEB779
:1018E000282F30E0F901E859FF4F8491F901E458BD
:1018F000FF4F1491F901E057FF4F04910023C9F005
:10190000882321F069830E94070C6981E02FF0E0B1
:10191000EE0FFF1FEC55FF4FA591B4919FB7F894C0
:101920008C91611103C01095812301C0812B8C9390
:101930009FBF0F90DF91CF911F910F9108951F923C
:101940000F920FB60F9211242F933F938F939F9373
:10195000AF93BF938091830290918402A0918502FE
:10196000B09186023091820223E0230F2D3720F4BC
:101970000196A11DB11D05C026E8230F0296A11DE9
:10198000B11D209382028093830290938402A093DE
:101990008502B09386028091870290918802A0917F
:1019A0008902B0918A020196A11DB11D8093870220
:1019B00090938802A0938902B0938A02BF91AF915D
:1019C0009F918F913F912F910F900FBE0F901F907D
:1019D00018953FB7F8948091870290918802A09162
:1019E0008902B0918A0226B5A89B05C02F3F19F045
:1019F0000196A11DB11D3FBF6627782F892F9A2F11
:101A0000620F711D811D911D42E0660F771F881FB7
:101A1000991F4A95D1F70895CF92DF92EF92FF92E6
:101A2000CF93DF936B017C010E94E90CEB01C114A1
:101A3000D104E104F10479F00E94E90C6C1B7D0BE8
:101A4000683E7340A0F381E0C81AD108E108F108AC
:101A5000C851DC4FECCFDF91CF91FF90EF90DF903A
:101A6000CF9008950197009739F0880F991F880F3C
:101A7000991F02970197F1F70895789484B58260D1
:101A800084BD84B5816084BD85B5826085BD85B522
:101A9000816085BDEEE6F0E0808181608083E1E8D1
:101AA000F0E0108280818260808380818160808309
:101AB000E0E8F0E0808181608083E1EBF0E080810C
:101AC00084608083E0EBF0E0808181608083EAE7DE
:101AD000F0E0808184608083808182608083808167
:101AE000816080838081806880831092C100089526
:101AF0008E3008F08E50877020910B0190E4299F62
:101B000090011124822B80937C0080917A00806464
:101B100080937A0080917A0086FDFCCF80917800D6
:101B20002091790090E0922B0895A1E21A2EAA1B31
:101B3000BB1BFD010DC0AA1FBB1FEE1FFF1FA2177D
:101B4000B307E407F50720F0A21BB30BE40BF50B7A
:101B5000661F771F881F991F1A9469F76095709503
:101B6000809590959B01AC01BD01CF010895052E94
:101B700097FB1EF400940E94CE0D57FD07D00E94E3
:101B8000950D07FC03D04EF40C94CE0D5095409566
:101B9000309521953F4F4F4F5F4F08959095809519
:101BA000709561957F4F8F4F9F4F08950E94E70D6D
:101BB000A59F900DB49F900DA49F800D911D1124A1
:101BC0000895EE0FFF1F0590F491E02D0994A29F58
:101BD000B001B39FC001A39F700D811D1124911D01
:101BE000B29F700D811D1124911D08958F929F92B7
:101BF000AF92BF92CF92DF92EF92FF92CF93DF939B
:101C0000EC01688179818A819B816115710581056B
:101C1000910521F464E279ED8BE597E02DE133EF56
:101C200041E050E00E94B70D49015A019B01AC010F
:101C3000A7EAB1E40E94D60D6B017C01ACEEB4EFD3
:101C4000A50194010E94660EC60ED71EE81EF91E5D
:101C5000F7FE06C081E0C81AD108E10880E8F80A5A
:101C6000C882D982EA82FB82C701B6019F77DF91E1
:101C7000CF91FF90EF90DF90CF90BF90AF909F906B
:101C80008F9008950E94F60D089580E091E00E94E3
:101C9000F60D089560930001709301018093020195
:101CA000909303010895FB01DC0102C001900D92A5
:101CB00041505040D8F70895FB01DC0101900D928E
:101CC0000020E1F70895B7FF0C94D60D0E94D60DC1
:0A1CD000821B930B0895F894FFCFD8
:101CDA00010000000100008F0280000100004000A6
:101CEA001400540020202020202020202020202002
:101CFA00202020200031307C00203F7C002E2E2E18
:101D0A0000426C61636B6A61636B210057696E21E3
:101D1A00004275737421005469652E004C6F736517
:101D2A002E00413233343536373839544A514B0054
:101D3A0000000054065A060000000064085A060A09
:081D4A000837081C08590800C5
:00000001FF
